{
  "contractName": "Portfolio",
  "abi": [
    {
      "constant": true,
      "inputs": [],
      "name": "counter",
      "outputs": [
        {
          "name": "",
          "type": "uint256"
        }
      ],
      "payable": false,
      "stateMutability": "view",
      "type": "function"
    },
    {
      "constant": true,
      "inputs": [
        {
          "name": "",
          "type": "uint256"
        }
      ],
      "name": "userAddesses",
      "outputs": [
        {
          "name": "",
          "type": "address"
        }
      ],
      "payable": false,
      "stateMutability": "view",
      "type": "function"
    },
    {
      "anonymous": false,
      "inputs": [
        {
          "indexed": true,
          "name": "userAddress",
          "type": "address"
        },
        {
          "indexed": false,
          "name": "index",
          "type": "uint256"
        },
        {
          "indexed": false,
          "name": "name",
          "type": "bytes32"
        },
        {
          "indexed": false,
          "name": "balance",
          "type": "uint256"
        }
      ],
      "name": "LogNewUser",
      "type": "event"
    },
    {
      "anonymous": false,
      "inputs": [
        {
          "indexed": true,
          "name": "userAddress",
          "type": "address"
        },
        {
          "indexed": false,
          "name": "index",
          "type": "uint256"
        },
        {
          "indexed": false,
          "name": "name",
          "type": "bytes32"
        }
      ],
      "name": "LogUpdateUser",
      "type": "event"
    },
    {
      "constant": true,
      "inputs": [
        {
          "name": "userAddress",
          "type": "address"
        }
      ],
      "name": "isUser",
      "outputs": [
        {
          "name": "",
          "type": "bool"
        }
      ],
      "payable": false,
      "stateMutability": "view",
      "type": "function"
    },
    {
      "constant": false,
      "inputs": [
        {
          "name": "_userAddress",
          "type": "address"
        },
        {
          "name": "name",
          "type": "bytes32"
        },
        {
          "name": "_portfolioName",
          "type": "bytes32"
        },
        {
          "name": "_email",
          "type": "bytes32"
        }
      ],
      "name": "createPortfolio",
      "outputs": [
        {
          "name": "index",
          "type": "uint256"
        }
      ],
      "payable": true,
      "stateMutability": "payable",
      "type": "function"
    },
    {
      "constant": true,
      "inputs": [
        {
          "name": "userAddress",
          "type": "address"
        }
      ],
      "name": "getPortfolio",
      "outputs": [
        {
          "name": "",
          "type": "bytes32"
        },
        {
          "name": "",
          "type": "bytes32"
        },
        {
          "name": "",
          "type": "bytes32"
        },
        {
          "name": "",
          "type": "bytes32"
        }
      ],
      "payable": false,
      "stateMutability": "view",
      "type": "function"
    },
    {
      "constant": true,
      "inputs": [
        {
          "name": "userAddress",
          "type": "address"
        }
      ],
      "name": "getPortfolioNumbers",
      "outputs": [
        {
          "name": "",
          "type": "uint256"
        },
        {
          "name": "",
          "type": "uint256"
        },
        {
          "name": "",
          "type": "uint256"
        },
        {
          "name": "",
          "type": "uint256"
        },
        {
          "name": "",
          "type": "uint256"
        }
      ],
      "payable": false,
      "stateMutability": "view",
      "type": "function"
    },
    {
      "constant": true,
      "inputs": [
        {
          "name": "userAddress",
          "type": "address"
        }
      ],
      "name": "getPortfolioList",
      "outputs": [
        {
          "name": "",
          "type": "bytes32[]"
        },
        {
          "name": "",
          "type": "address[]"
        },
        {
          "name": "",
          "type": "uint256[]"
        }
      ],
      "payable": false,
      "stateMutability": "view",
      "type": "function"
    },
    {
      "constant": false,
      "inputs": [
        {
          "name": "userAddress",
          "type": "address"
        },
        {
          "name": "_name",
          "type": "bytes32"
        },
        {
          "name": "_portfolioName",
          "type": "bytes32"
        },
        {
          "name": "_email",
          "type": "bytes32"
        }
      ],
      "name": "updatePortfolioName",
      "outputs": [
        {
          "name": "success",
          "type": "bool"
        }
      ],
      "payable": true,
      "stateMutability": "payable",
      "type": "function"
    },
    {
      "constant": true,
      "inputs": [],
      "name": "getAllPortfolio",
      "outputs": [
        {
          "name": "",
          "type": "address[]"
        }
      ],
      "payable": false,
      "stateMutability": "view",
      "type": "function"
    },
    {
      "constant": false,
      "inputs": [
        {
          "name": "followAddress",
          "type": "address"
        },
        {
          "name": "_email",
          "type": "bytes32"
        }
      ],
      "name": "follow",
      "outputs": [
        {
          "name": "",
          "type": "bool"
        }
      ],
      "payable": false,
      "stateMutability": "nonpayable",
      "type": "function"
    },
    {
      "constant": false,
      "inputs": [
        {
          "name": "followAddress",
          "type": "address"
        },
        {
          "name": "_email",
          "type": "bytes32"
        }
      ],
      "name": "unfollow",
      "outputs": [
        {
          "name": "",
          "type": "bool"
        }
      ],
      "payable": false,
      "stateMutability": "nonpayable",
      "type": "function"
    },
    {
      "constant": false,
      "inputs": [
        {
          "name": "_code",
          "type": "bytes32"
        },
        {
          "name": "_amount",
          "type": "uint256"
        },
        {
          "name": "_price",
          "type": "uint256"
        },
        {
          "name": "_state",
          "type": "bytes32"
        },
        {
          "name": "_buyDate",
          "type": "bytes32"
        },
        {
          "name": "_sellDate",
          "type": "bytes32"
        }
      ],
      "name": "inserStock",
      "outputs": [
        {
          "name": "",
          "type": "bool"
        }
      ],
      "payable": true,
      "stateMutability": "payable",
      "type": "function"
    },
    {
      "constant": true,
      "inputs": [
        {
          "name": "_address",
          "type": "address"
        }
      ],
      "name": "getStockId",
      "outputs": [
        {
          "name": "",
          "type": "uint256[]"
        }
      ],
      "payable": false,
      "stateMutability": "view",
      "type": "function"
    },
    {
      "constant": true,
      "inputs": [
        {
          "name": "_address",
          "type": "address"
        },
        {
          "name": "_stockId",
          "type": "uint256"
        }
      ],
      "name": "getStockById",
      "outputs": [
        {
          "name": "",
          "type": "bytes32"
        },
        {
          "name": "",
          "type": "bytes32"
        },
        {
          "name": "",
          "type": "uint256"
        },
        {
          "name": "",
          "type": "uint256"
        },
        {
          "name": "",
          "type": "uint256"
        },
        {
          "name": "",
          "type": "bytes32"
        },
        {
          "name": "",
          "type": "bytes32"
        }
      ],
      "payable": false,
      "stateMutability": "view",
      "type": "function"
    },
    {
      "constant": false,
      "inputs": [
        {
          "name": "_address",
          "type": "address"
        },
        {
          "name": "_stockId",
          "type": "uint256"
        },
        {
          "name": "_selldate",
          "type": "bytes32"
        },
        {
          "name": "_earn",
          "type": "uint256"
        }
      ],
      "name": "sellStock",
      "outputs": [
        {
          "name": "",
          "type": "bool"
        }
      ],
      "payable": true,
      "stateMutability": "payable",
      "type": "function"
    },
    {
      "constant": false,
      "inputs": [
        {
          "name": "_address",
          "type": "address"
        },
        {
          "name": "_amount",
          "type": "uint256"
        }
      ],
      "name": "transferEther",
      "outputs": [
        {
          "name": "",
          "type": "bool"
        }
      ],
      "payable": true,
      "stateMutability": "payable",
      "type": "function"
    }
  ],
  "bytecode": "0x608060405234801561001057600080fd5b50611db4806100206000396000f3006080604052600436106100e6576000357c0100000000000000000000000000000000000000000000000000000000900463ffffffff16806305b1137b146100eb5780630bfbb46f146101435780631ae53f40146101b35780634209fff11461021c5780635842b422146102775780635988696d1461030f57806361bc221a146103895780638db650fb146103b4578063a1234a3014610428578063a667485514610550578063c42b48af146105bc578063e1b51e4a14610625578063eb22ae1114610698578063edac668614610724578063f0f1b70514610791578063fd9654451461083c575b600080fd5b610129600480360381019080803573ffffffffffffffffffffffffffffffffffffffff169060200190929190803590602001909291905050506108b4565b604051808215151515815260200191505060405180910390f35b610199600480360381019080803573ffffffffffffffffffffffffffffffffffffffff16906020019092919080359060200190929190803560001916906020019092919080359060200190929190505050610957565b604051808215151515815260200191505060405180910390f35b3480156101bf57600080fd5b50610202600480360381019080803573ffffffffffffffffffffffffffffffffffffffff1690602001909291908035600019169060200190929190505050610a46565b604051808215151515815260200191505060405180910390f35b34801561022857600080fd5b5061025d600480360381019080803573ffffffffffffffffffffffffffffffffffffffff169060200190929190505050610b6a565b604051808215151515815260200191505060405180910390f35b34801561028357600080fd5b506102b8600480360381019080803573ffffffffffffffffffffffffffffffffffffffff169060200190929190505050610c34565b6040518080602001828103825283818151815260200191508051906020019060200280838360005b838110156102fb5780820151818401526020810190506102e0565b505050509050019250505060405180910390f35b61036f60048036038101908080356000191690602001909291908035906020019092919080359060200190929190803560001916906020019092919080356000191690602001909291908035600019169060200190929190505050610ccb565b604051808215151515815260200191505060405180910390f35b34801561039557600080fd5b5061039e610ee2565b6040518082815260200191505060405180910390f35b610412600480360381019080803573ffffffffffffffffffffffffffffffffffffffff169060200190929190803560001916906020019092919080356000191690602001909291908035600019169060200190929190505050610ee8565b6040518082815260200191505060405180910390f35b34801561043457600080fd5b50610469600480360381019080803573ffffffffffffffffffffffffffffffffffffffff1690602001909291905050506112bf565b60405180806020018060200180602001848103845287818151815260200191508051906020019060200280838360005b838110156104b4578082015181840152602081019050610499565b50505050905001848103835286818151815260200191508051906020019060200280838360005b838110156104f65780820151818401526020810190506104db565b50505050905001848103825285818151815260200191508051906020019060200280838360005b8381101561053857808201518184015260208101905061051d565b50505050905001965050505050505060405180910390f35b34801561055c57600080fd5b506105656114c7565b6040518080602001828103825283818151815260200191508051906020019060200280838360005b838110156105a857808201518184015260208101905061058d565b505050509050019250505060405180910390f35b3480156105c857600080fd5b5061060b600480360381019080803573ffffffffffffffffffffffffffffffffffffffff1690602001909291908035600019169060200190929190505050611555565b604051808215151515815260200191505060405180910390f35b34801561063157600080fd5b50610666600480360381019080803573ffffffffffffffffffffffffffffffffffffffff169060200190929190505050611789565b604051808681526020018581526020018481526020018381526020018281526020019550505050505060405180910390f35b3480156106a457600080fd5b506106d9600480360381019080803573ffffffffffffffffffffffffffffffffffffffff1690602001909291905050506118f3565b60405180856000191660001916815260200184600019166000191681526020018360001916600019168152602001826000191660001916815260200194505050505060405180910390f35b34801561073057600080fd5b5061074f60048036038101908080359060200190929190505050611a28565b604051808273ffffffffffffffffffffffffffffffffffffffff1673ffffffffffffffffffffffffffffffffffffffff16815260200191505060405180910390f35b34801561079d57600080fd5b506107dc600480360381019080803573ffffffffffffffffffffffffffffffffffffffff16906020019092919080359060200190929190505050611a66565b60405180886000191660001916815260200187600019166000191681526020018681526020018581526020018481526020018360001916600019168152602001826000191660001916815260200197505050505050505060405180910390f35b61089a600480360381019080803573ffffffffffffffffffffffffffffffffffffffff169060200190929190803560001916906020019092919080356000191690602001909291908035600019169060200190929190505050611b01565b604051808215151515815260200191505060405180910390f35b600081600160008573ffffffffffffffffffffffffffffffffffffffff1673ffffffffffffffffffffffffffffffffffffffff168152602001908152602001600020600401600082825401925050819055508273ffffffffffffffffffffffffffffffffffffffff166108fc349081150290604051600060405180830381858888f1935050505015801561094c573d6000803e3d6000fd5b506001905092915050565b600080600160008773ffffffffffffffffffffffffffffffffffffffff1673ffffffffffffffffffffffffffffffffffffffff168152602001908152602001600020600c01600086815260200190815260200160002090507f736f6c64000000000000000000000000000000000000000000000000000000008160020181600019169055508381600401816000191690555082600160008873ffffffffffffffffffffffffffffffffffffffff1673ffffffffffffffffffffffffffffffffffffffff168152602001908152602001600020600701600082825401925050819055506001915050949350505050565b6000600160008473ffffffffffffffffffffffffffffffffffffffff1673ffffffffffffffffffffffffffffffffffffffff168152602001908152602001600020600901829080600181540180825580915050906001820390600052602060002001600090919290919091509060001916905550600160003373ffffffffffffffffffffffffffffffffffffffff1673ffffffffffffffffffffffffffffffffffffffff168152602001908152602001600020600a018390806001815401808255809150509060018203906000526020600020016000909192909190916101000a81548173ffffffffffffffffffffffffffffffffffffffff021916908373ffffffffffffffffffffffffffffffffffffffff160217905550506001905092915050565b6000806003805490501415610b825760009050610c2f565b8173ffffffffffffffffffffffffffffffffffffffff166003600160008573ffffffffffffffffffffffffffffffffffffffff1673ffffffffffffffffffffffffffffffffffffffff16815260200190815260200160002060060154815481101515610bea57fe5b9060005260206000200160009054906101000a900473ffffffffffffffffffffffffffffffffffffffff1673ffffffffffffffffffffffffffffffffffffffff161490505b919050565b6060600260008373ffffffffffffffffffffffffffffffffffffffff1673ffffffffffffffffffffffffffffffffffffffff168152602001908152602001600020805480602002602001604051908101604052809291908181526020018280548015610cbf57602002820191906000526020600020905b815481526020019060010190808311610cab575b50505050509050919050565b600080610cd733610b6a565b1515610ce257600080fd5b6000808154809291906001019190505550600160003373ffffffffffffffffffffffffffffffffffffffff1673ffffffffffffffffffffffffffffffffffffffff168152602001908152602001600020600c01600080548152602001908152602001600020905087816001018160001916905550868160050181905550848160020181600019169055508581600601819055508381600301816000191690555082816004018160001916905550600081600001541115610da55760019150610ed7565b600260003373ffffffffffffffffffffffffffffffffffffffff1673ffffffffffffffffffffffffffffffffffffffff1681526020019081526020016000206000549080600181540180825580915050906001820390600052602060002001600090919290919091505550600160003373ffffffffffffffffffffffffffffffffffffffff1673ffffffffffffffffffffffffffffffffffffffff168152602001908152602001600020600b0180546001019081610e639190611ce6565b8160000181905550600054600160003373ffffffffffffffffffffffffffffffffffffffff1673ffffffffffffffffffffffffffffffffffffffff168152602001908152602001600020600b016001836000015403815481101515610ec457fe5b9060005260206000200181905550600091505b509695505050505050565b60005481565b6000610ef385610b6a565b15610efd57600080fd5b83600160008773ffffffffffffffffffffffffffffffffffffffff1673ffffffffffffffffffffffffffffffffffffffff16815260200190815260200160002060000181600019169055508473ffffffffffffffffffffffffffffffffffffffff1631600160008773ffffffffffffffffffffffffffffffffffffffff1673ffffffffffffffffffffffffffffffffffffffff168152602001908152602001600020600301819055506000600160008773ffffffffffffffffffffffffffffffffffffffff1673ffffffffffffffffffffffffffffffffffffffff168152602001908152602001600020600701819055506000600160008773ffffffffffffffffffffffffffffffffffffffff1673ffffffffffffffffffffffffffffffffffffffff168152602001908152602001600020600801819055506000600160008773ffffffffffffffffffffffffffffffffffffffff1673ffffffffffffffffffffffffffffffffffffffff16815260200190815260200160002060040181905550600160038690806001815401808255809150509060018203906000526020600020016000909192909190916101000a81548173ffffffffffffffffffffffffffffffffffffffff021916908373ffffffffffffffffffffffffffffffffffffffff16021790555003600160008773ffffffffffffffffffffffffffffffffffffffff1673ffffffffffffffffffffffffffffffffffffffff1681526020019081526020016000206006018190555082600160008773ffffffffffffffffffffffffffffffffffffffff1673ffffffffffffffffffffffffffffffffffffffff168152602001908152602001600020600101816000191690555081600160008773ffffffffffffffffffffffffffffffffffffffff1673ffffffffffffffffffffffffffffffffffffffff16815260200190815260200160002060020181600019169055503373ffffffffffffffffffffffffffffffffffffffff167f57f7301fe8e6f5b36f73ccce215bfaee0be1dda153d32992eb9ac05da8668611600160008873ffffffffffffffffffffffffffffffffffffffff1673ffffffffffffffffffffffffffffffffffffffff1681526020019081526020016000206006015486600160008a73ffffffffffffffffffffffffffffffffffffffff1673ffffffffffffffffffffffffffffffffffffffff16815260200190815260200160002060030154604051808481526020018360001916600019168152602001828152602001935050505060405180910390a26001600380549050039050949350505050565b6060806060600160008573ffffffffffffffffffffffffffffffffffffffff1673ffffffffffffffffffffffffffffffffffffffff168152602001908152602001600020600901600160008673ffffffffffffffffffffffffffffffffffffffff1673ffffffffffffffffffffffffffffffffffffffff168152602001908152602001600020600a01600160008773ffffffffffffffffffffffffffffffffffffffff1673ffffffffffffffffffffffffffffffffffffffff168152602001908152602001600020600b01828054806020026020016040519081016040528092919081815260200182805480156113d957602002820191906000526020600020905b815460001916815260200190600101908083116113c1575b505050505092508180548060200260200160405190810160405280929190818152602001828054801561146157602002820191906000526020600020905b8160009054906101000a900473ffffffffffffffffffffffffffffffffffffffff1673ffffffffffffffffffffffffffffffffffffffff1681526020019060010190808311611417575b50505050509150808054806020026020016040519081016040528092919081815260200182805480156114b357602002820191906000526020600020905b81548152602001906001019080831161149f575b505050505090509250925092509193909250565b6060600380548060200260200160405190810160405280929190818152602001828054801561154b57602002820191906000526020600020905b8160009054906101000a900473ffffffffffffffffffffffffffffffffffffffff1673ffffffffffffffffffffffffffffffffffffffff1681526020019060010190808311611501575b5050505050905090565b60008060008090505b600160008673ffffffffffffffffffffffffffffffffffffffff1673ffffffffffffffffffffffffffffffffffffffff16815260200190815260200160002060090180549050811015611625578360001916600160008773ffffffffffffffffffffffffffffffffffffffff1673ffffffffffffffffffffffffffffffffffffffff168152602001908152602001600020600901828154811015156115ff57fe5b9060005260206000200154600019161415611618578091505b808060010191505061155e565b600160008673ffffffffffffffffffffffffffffffffffffffff1673ffffffffffffffffffffffffffffffffffffffff16815260200190815260200160002060090160018060008873ffffffffffffffffffffffffffffffffffffffff1673ffffffffffffffffffffffffffffffffffffffff16815260200190815260200160002060090180549050038154811015156116bb57fe5b9060005260206000200154600160008773ffffffffffffffffffffffffffffffffffffffff1673ffffffffffffffffffffffffffffffffffffffff1681526020019081526020016000206009018381548110151561171557fe5b906000526020600020018160001916905550600160008673ffffffffffffffffffffffffffffffffffffffff1673ffffffffffffffffffffffffffffffffffffffff16815260200190815260200160002060090180548091906001900361177c9190611d12565b5060019250505092915050565b6000806000806000600160008773ffffffffffffffffffffffffffffffffffffffff1673ffffffffffffffffffffffffffffffffffffffff16815260200190815260200160002060030154600160008873ffffffffffffffffffffffffffffffffffffffff1673ffffffffffffffffffffffffffffffffffffffff16815260200190815260200160002060040154600160008973ffffffffffffffffffffffffffffffffffffffff1673ffffffffffffffffffffffffffffffffffffffff16815260200190815260200160002060060154600160008a73ffffffffffffffffffffffffffffffffffffffff1673ffffffffffffffffffffffffffffffffffffffff16815260200190815260200160002060070154600160008b73ffffffffffffffffffffffffffffffffffffffff1673ffffffffffffffffffffffffffffffffffffffff168152602001908152602001600020600801549450945094509450945091939590929450565b60008060008061190285610b6a565b151561190d57600080fd5b600160008673ffffffffffffffffffffffffffffffffffffffff1673ffffffffffffffffffffffffffffffffffffffff16815260200190815260200160002060000154600160008773ffffffffffffffffffffffffffffffffffffffff1673ffffffffffffffffffffffffffffffffffffffff16815260200190815260200160002060010154600160008873ffffffffffffffffffffffffffffffffffffffff1673ffffffffffffffffffffffffffffffffffffffff16815260200190815260200160002060020154600160008973ffffffffffffffffffffffffffffffffffffffff1673ffffffffffffffffffffffffffffffffffffffff1681526020019081526020016000206005015493509350935093509193509193565b600381815481101515611a3757fe5b906000526020600020016000915054906101000a900473ffffffffffffffffffffffffffffffffffffffff1681565b600080600080600080600080600160008b73ffffffffffffffffffffffffffffffffffffffff1673ffffffffffffffffffffffffffffffffffffffff168152602001908152602001600020600c0160008a8152602001908152602001600020905080600101548160020154826005015483600601548c8560030154866004015497509750975097509750975097505092959891949750929550565b6000611b0c85610b6a565b1515611b1757600080fd5b83600160008773ffffffffffffffffffffffffffffffffffffffff1673ffffffffffffffffffffffffffffffffffffffff168152602001908152602001600020600001816000191690555082600160008773ffffffffffffffffffffffffffffffffffffffff1673ffffffffffffffffffffffffffffffffffffffff168152602001908152602001600020600101816000191690555081600160008773ffffffffffffffffffffffffffffffffffffffff1673ffffffffffffffffffffffffffffffffffffffff16815260200190815260200160002060020181600019169055508473ffffffffffffffffffffffffffffffffffffffff167f6a24777a88cef6489f974d587492f7442e8d282cc10a013ed3e23c4d3a2c5da6600160008873ffffffffffffffffffffffffffffffffffffffff1673ffffffffffffffffffffffffffffffffffffffff16815260200190815260200160002060060154600160008973ffffffffffffffffffffffffffffffffffffffff1673ffffffffffffffffffffffffffffffffffffffff168152602001908152602001600020600001546040518083815260200182600019166000191681526020019250505060405180910390a260019050949350505050565b815481835581811115611d0d57818360005260206000209182019101611d0c9190611d3e565b5b505050565b815481835581811115611d3957818360005260206000209182019101611d389190611d63565b5b505050565b611d6091905b80821115611d5c576000816000905550600101611d44565b5090565b90565b611d8591905b80821115611d81576000816000905550600101611d69565b5090565b905600a165627a7a7230582020358b70cb8048c26b3d2b3191f1d6712bed601f36a0a99554916eea6ea90bbf0029",
  "source": "pragma solidity ^0.4.17;\n\ncontract Portfolio {\n\n struct Stock {\n        uint key;\n        bytes32 code;\n        bytes32 state;\n        bytes32 buyDate;\n        bytes32 sellDate;\n        uint amount;\n        uint price;\n    }\n\n   struct PortfolioStruct {\n            bytes32 name;\n            bytes32 portfolioName;\n            bytes32 email;\n            uint balance;\n            uint donation;\n            bytes32 state; \n            uint index; \n            uint earn;\n            uint likeNumber;\n            bytes32[] followerIds;\n            address[] follows;\n            uint[] stockKeys;\n            mapping (uint => Stock) stocks;\n    }\n\n    event LogNewUser   (address indexed userAddress, uint index, bytes32 name, uint balance);\n    event LogUpdateUser(address indexed userAddress, uint index, bytes32 name);\n//one user may have only one portfilo and this portflio can not deleted \n//So when they want to create a portfilo should input a name,should we \n//need to create a user or not \n    uint public counter;\n    mapping(address => PortfolioStruct) userPortfolios;\n    mapping(address => uint[]) usersItemid;\n    address[] public userAddesses;\n\n\n    function isUser(address userAddress)public constant returns(bool) {\n        if (userAddesses.length == 0) \n            return false;\n        return (userAddesses[userPortfolios[userAddress].index] == userAddress);\n    }\n\n\n    function createPortfolio(address _userAddress,bytes32 name,bytes32 _portfolioName,bytes32 _email) public payable returns(uint index) {\n        if (isUser(_userAddress)) throw; \n        userPortfolios[_userAddress].name = name;\n        userPortfolios[_userAddress].balance = _userAddress.balance;\n        userPortfolios[_userAddress].earn = 0;\n        userPortfolios[_userAddress].likeNumber = 0;\n        userPortfolios[_userAddress].donation = 0;\n        userPortfolios[_userAddress].index = userAddesses.push(_userAddress)-1;\n        userPortfolios[_userAddress].portfolioName = _portfolioName;\n        userPortfolios[_userAddress].email = _email;\n        LogNewUser( \n            msg.sender, \n            userPortfolios[_userAddress].index, \n            name, \n            userPortfolios[_userAddress].balance);\n        return userAddesses.length-1;\n    }\n//bytes32 name; bytes32 portfolioName; bytes32 email; uint balance; uint donation; bytes32 state; uint index; uint earn; uint likeNumber; address[] followerIds; address[] follows; uint[] stockKeys;\n    function getPortfolio(address userAddress) public constant returns(bytes32,bytes32,bytes32,bytes32) {\n        if(!isUser(userAddress)) throw; \n        return (userPortfolios[userAddress].name, userPortfolios[userAddress].portfolioName,userPortfolios[userAddress].email,userPortfolios[userAddress].state);\n    }\n    function getPortfolioNumbers(address userAddress) public constant returns(uint ,uint,uint,uint,uint) {\n        return (userPortfolios[userAddress].balance, userPortfolios[userAddress].donation, userPortfolios[userAddress].index, userPortfolios[userAddress].earn, userPortfolios[userAddress].likeNumber);\n    }\n    function getPortfolioList(address userAddress) public constant returns(bytes32[],address[],uint[]) {\n        return (userPortfolios[userAddress].followerIds, userPortfolios[userAddress].follows, userPortfolios[userAddress].stockKeys);\n    }\n    function updatePortfolioName(address userAddress, bytes32 _name,bytes32 _portfolioName,bytes32 _email) public payable returns(bool success) {\n        if(!isUser(userAddress)) throw; \n        userPortfolios[userAddress].name = _name;\n        userPortfolios[userAddress].portfolioName = _portfolioName;\n        userPortfolios[userAddress].email = _email;\n        LogUpdateUser(\n          userAddress, \n          userPortfolios[userAddress].index,\n          userPortfolios[userAddress].name);\n        return true;\n    }\n\n    function getAllPortfolio() public constant returns(address[]) {\n        return userAddesses;\n    }\n\n    function follow(address followAddress, bytes32 _email) public returns(bool) {\n        userPortfolios[followAddress].followerIds.push(_email);\n        userPortfolios[msg.sender].follows.push(followAddress);\n        return true;\n    }\n    function unfollow(address followAddress, bytes32 _email) public returns(bool) {\n        uint res;\n        for (uint i = 0;i<userPortfolios[followAddress].followerIds.length; i++) {\n            if (userPortfolios[followAddress].followerIds[i] == _email) {\n                res = i;\n            }\n        }\n        userPortfolios[followAddress].followerIds[res] = userPortfolios[followAddress].followerIds[userPortfolios[followAddress].followerIds.length-1];\n        userPortfolios[followAddress].followerIds.length--;\n        // uint res2;\n        // for (uint j = 0;j < userPortfolios[msg.sender].follows.length; i++) {\n        //     if (userPortfolios[msg.sender].follows[j] == followAddress) {\n        //         res2 = j;\n        //     }\n        // }\n        // userPortfolios[msg.sender].follows[res2] = userPortfolios[msg.sender].follows[userPortfolios[msg.sender].follows.length-1];\n        // userPortfolios[msg.sender].follows.length--;\n        return true;\n    }\n/**\n     counter++;\n        Item storage t = userStructs[userAddress].items[counter];\n        t.code = _code;\n        t.amount = _amount;\n        t.state = _state;\n        t.price = _price;\n        if(t.keyIndex > 0){\n            return true;\n        }else{\n            userWithItem[userAddress].push(counter);\n            t.keyIndex = ++userStructs[userAddress].itemKeys.length;\n            userStructs[userAddress].itemKeys[t.keyIndex - 1] = counter;\n            return false;\n        }\n         */\n    function inserStock(bytes32 _code,uint _amount,uint _price,bytes32 _state,bytes32 _buyDate, bytes32 _sellDate) public payable returns (bool) {\n        if(!isUser(msg.sender)) throw; \n        counter++;\n        Stock storage t =  userPortfolios[msg.sender].stocks[counter];\n        t.code = _code;\n        t.amount = _amount;\n        t.state = _state;\n        t.price = _price;\n        t.buyDate =_buyDate;\n        t.sellDate = _sellDate;\n         if (t.key > 0) {\n            return true;\n            }else {\n            usersItemid[msg.sender].push(counter);\n            t.key = ++userPortfolios[msg.sender].stockKeys.length;\n            userPortfolios[msg.sender].stockKeys[t.key - 1] = counter;\n            return false;\n        }\n    }\n    function getStockId(address _address) constant public returns(uint[]){\n      //need to check if there is a address in data and a item in the address\n      return usersItemid[_address];\n    }\n  //      bytes32 buyDate;bytes32 sellDate;\n    function getStockById(address _address,uint _stockId) constant public returns(bytes32,bytes32,uint,uint,uint,bytes32,bytes32) {\n      Stock storage t = userPortfolios[_address].stocks[_stockId];\n      return (t.code,t.state,t.amount,t.price,_stockId,t.buyDate,t.sellDate);\n    }\n\n    function sellStock(address _address,uint _stockId, bytes32 _selldate,uint _earn) payable public returns (bool) {\n        Stock storage t = userPortfolios[_address].stocks[_stockId];\n        t.state = \"sold\";\n        t.sellDate = _selldate;\n        userPortfolios[_address].earn += _earn;\n        return true;\n    }\n\n    function transferEther(address _address,uint _amount) public payable returns(bool) {\n        userPortfolios[_address].donation += _amount;\n        _address.transfer(msg.value);\n        return true;\n    } \n}",
  "sourcePath": "/Users/dk/Downloads/comp9900/front-end/blockchain/contracts/Portfolio.sol",
  "compiler": {
    "name": "solc",
    "version": "0.4.23+commit.124ca40d.Emscripten.clang"
  },
  "schemaVersion": "2.0.0",
  "updatedAt": "2018-05-22T04:10:55.204Z"
}