{
  "contractName": "User",
  "abi": [
    {
      "constant": true,
      "inputs": [
        {
          "name": "",
          "type": "uint256"
        }
      ],
      "name": "itmeIndex",
      "outputs": [
        {
          "name": "",
          "type": "uint256"
        }
      ],
      "payable": false,
      "stateMutability": "view",
      "type": "function"
    },
    {
      "anonymous": false,
      "inputs": [
        {
          "indexed": true,
          "name": "userAddress",
          "type": "address"
        },
        {
          "indexed": false,
          "name": "index",
          "type": "uint256"
        },
        {
          "indexed": false,
          "name": "name",
          "type": "bytes32"
        },
        {
          "indexed": false,
          "name": "balance",
          "type": "uint256"
        }
      ],
      "name": "LogNewUser",
      "type": "event"
    },
    {
      "anonymous": false,
      "inputs": [
        {
          "indexed": true,
          "name": "userAddress",
          "type": "address"
        },
        {
          "indexed": false,
          "name": "index",
          "type": "uint256"
        },
        {
          "indexed": false,
          "name": "",
          "type": "uint256"
        }
      ],
      "name": "LogUpdateUser",
      "type": "event"
    },
    {
      "anonymous": false,
      "inputs": [
        {
          "indexed": true,
          "name": "userAddress",
          "type": "address"
        },
        {
          "indexed": false,
          "name": "index",
          "type": "uint256"
        }
      ],
      "name": "LogUpdateUser",
      "type": "event"
    },
    {
      "anonymous": false,
      "inputs": [
        {
          "indexed": true,
          "name": "userAddress",
          "type": "address"
        },
        {
          "indexed": false,
          "name": "index",
          "type": "uint256"
        }
      ],
      "name": "LogDeleteUser",
      "type": "event"
    },
    {
      "constant": false,
      "inputs": [
        {
          "name": "userAddress",
          "type": "address"
        },
        {
          "name": "name",
          "type": "bytes32"
        },
        {
          "name": "balance",
          "type": "uint256"
        },
        {
          "name": "_role",
          "type": "uint256"
        }
      ],
      "name": "insertUser",
      "outputs": [
        {
          "name": "index",
          "type": "uint256"
        }
      ],
      "payable": false,
      "stateMutability": "nonpayable",
      "type": "function"
    },
    {
      "constant": true,
      "inputs": [
        {
          "name": "userAddress",
          "type": "address"
        }
      ],
      "name": "isUser",
      "outputs": [
        {
          "name": "isIndeed",
          "type": "bool"
        }
      ],
      "payable": false,
      "stateMutability": "view",
      "type": "function"
    },
    {
      "constant": true,
      "inputs": [
        {
          "name": "userAddress",
          "type": "address"
        }
      ],
      "name": "getUser",
      "outputs": [
        {
          "name": "name",
          "type": "bytes32"
        },
        {
          "name": "balance",
          "type": "uint256"
        },
        {
          "name": "index",
          "type": "uint256"
        },
        {
          "name": "",
          "type": "uint256"
        }
      ],
      "payable": false,
      "stateMutability": "view",
      "type": "function"
    },
    {
      "constant": false,
      "inputs": [
        {
          "name": "userAddress",
          "type": "address"
        },
        {
          "name": "_balance",
          "type": "uint256"
        }
      ],
      "name": "updateUserBalance",
      "outputs": [
        {
          "name": "success",
          "type": "bool"
        }
      ],
      "payable": false,
      "stateMutability": "nonpayable",
      "type": "function"
    },
    {
      "constant": true,
      "inputs": [],
      "name": "getUserCount",
      "outputs": [
        {
          "name": "count",
          "type": "uint256"
        }
      ],
      "payable": false,
      "stateMutability": "view",
      "type": "function"
    },
    {
      "constant": true,
      "inputs": [
        {
          "name": "index",
          "type": "uint256"
        }
      ],
      "name": "getUserAtIndex",
      "outputs": [
        {
          "name": "userAddress",
          "type": "address"
        }
      ],
      "payable": false,
      "stateMutability": "view",
      "type": "function"
    },
    {
      "constant": true,
      "inputs": [],
      "name": "getAllUsers",
      "outputs": [
        {
          "name": "",
          "type": "address[]"
        }
      ],
      "payable": false,
      "stateMutability": "view",
      "type": "function"
    },
    {
      "constant": false,
      "inputs": [
        {
          "name": "userAddress",
          "type": "address"
        }
      ],
      "name": "deleteUser",
      "outputs": [
        {
          "name": "index",
          "type": "uint256"
        }
      ],
      "payable": false,
      "stateMutability": "nonpayable",
      "type": "function"
    },
    {
      "constant": false,
      "inputs": [
        {
          "name": "userAddress",
          "type": "address"
        },
        {
          "name": "_code",
          "type": "bytes32"
        },
        {
          "name": "_state",
          "type": "bytes32"
        },
        {
          "name": "_amount",
          "type": "uint256"
        },
        {
          "name": "_price",
          "type": "uint256"
        }
      ],
      "name": "insertItem",
      "outputs": [
        {
          "name": "",
          "type": "bool"
        }
      ],
      "payable": true,
      "stateMutability": "payable",
      "type": "function"
    },
    {
      "constant": false,
      "inputs": [
        {
          "name": "userAddress",
          "type": "address"
        },
        {
          "name": "_code",
          "type": "bytes32"
        },
        {
          "name": "_itmeID",
          "type": "uint256"
        },
        {
          "name": "_state",
          "type": "bytes32"
        },
        {
          "name": "_amount",
          "type": "uint256"
        },
        {
          "name": "_price",
          "type": "uint256"
        }
      ],
      "name": "updateItem",
      "outputs": [
        {
          "name": "",
          "type": "bool"
        }
      ],
      "payable": true,
      "stateMutability": "payable",
      "type": "function"
    },
    {
      "constant": false,
      "inputs": [
        {
          "name": "_itmeID",
          "type": "uint256"
        }
      ],
      "name": "deleteItem",
      "outputs": [
        {
          "name": "",
          "type": "bool"
        }
      ],
      "payable": true,
      "stateMutability": "payable",
      "type": "function"
    },
    {
      "constant": true,
      "inputs": [
        {
          "name": "_address",
          "type": "address"
        }
      ],
      "name": "getUserItemId",
      "outputs": [
        {
          "name": "",
          "type": "uint256[]"
        }
      ],
      "payable": false,
      "stateMutability": "view",
      "type": "function"
    },
    {
      "constant": true,
      "inputs": [
        {
          "name": "_address",
          "type": "address"
        },
        {
          "name": "_itmeID",
          "type": "uint256"
        }
      ],
      "name": "getItemById",
      "outputs": [
        {
          "name": "",
          "type": "bytes32"
        },
        {
          "name": "",
          "type": "bytes32"
        },
        {
          "name": "",
          "type": "uint256"
        },
        {
          "name": "",
          "type": "uint256"
        },
        {
          "name": "",
          "type": "uint256"
        }
      ],
      "payable": false,
      "stateMutability": "view",
      "type": "function"
    },
    {
      "constant": false,
      "inputs": [
        {
          "name": "_address",
          "type": "address"
        },
        {
          "name": "_itmeID",
          "type": "uint256"
        },
        {
          "name": "_state",
          "type": "bytes32"
        }
      ],
      "name": "updateItemState",
      "outputs": [
        {
          "name": "",
          "type": "bool"
        }
      ],
      "payable": false,
      "stateMutability": "nonpayable",
      "type": "function"
    },
    {
      "constant": false,
      "inputs": [
        {
          "name": "_address",
          "type": "address"
        },
        {
          "name": "_itmeID",
          "type": "uint256"
        },
        {
          "name": "_amount",
          "type": "uint256"
        }
      ],
      "name": "updateItemAmount",
      "outputs": [
        {
          "name": "",
          "type": "bool"
        }
      ],
      "payable": false,
      "stateMutability": "nonpayable",
      "type": "function"
    },
    {
      "constant": false,
      "inputs": [
        {
          "name": "_seller",
          "type": "address"
        },
        {
          "name": "_itemId",
          "type": "uint256"
        },
        {
          "name": "_amount",
          "type": "uint256"
        }
      ],
      "name": "transferEther",
      "outputs": [
        {
          "name": "",
          "type": "bool"
        }
      ],
      "payable": true,
      "stateMutability": "payable",
      "type": "function"
    }
  ],
  "bytecode": "0x608060405234801561001057600080fd5b506119c6806100206000396000f3006080604052600436106100f1576000357c0100000000000000000000000000000000000000000000000000000000900463ffffffff1680631ba7cb1f146100f657806336a01bac1461018e5780633e89ec6c146102075780634209fff1146102695780635c60f226146102c45780635eba6e471461031b5780635f94ad0714610380578063654fc833146103fe5780636f77926b1461043657806372067c3f146104aa578063b5cb15f714610519578063bfe1f19814610544578063c8777170146105b7578063e2842d791461063f578063e5cacade146106ab578063ffcc7bbf146106ec578063ffd78cb914610759575b600080fd5b34801561010257600080fd5b50610137600480360381019080803573ffffffffffffffffffffffffffffffffffffffff1690602001909291905050506107e6565b6040518080602001828103825283818151815260200191508051906020019060200280838360005b8381101561017a57808201518184015260208101905061015f565b505050509050019250505060405180910390f35b34801561019a57600080fd5b506101f1600480360381019080803573ffffffffffffffffffffffffffffffffffffffff1690602001909291908035600019169060200190929190803590602001909291908035906020019092919050505061087d565b6040518082815260200191505060405180910390f35b61024f600480360381019080803573ffffffffffffffffffffffffffffffffffffffff1690602001909291908035906020019092919080359060200190929190505050610acf565b604051808215151515815260200191505060405180910390f35b34801561027557600080fd5b506102aa600480360381019080803573ffffffffffffffffffffffffffffffffffffffff169060200190929190505050610e57565b604051808215151515815260200191505060405180910390f35b3480156102d057600080fd5b50610305600480360381019080803573ffffffffffffffffffffffffffffffffffffffff169060200190929190505050610f20565b6040518082815260200191505060405180910390f35b34801561032757600080fd5b50610366600480360381019080803573ffffffffffffffffffffffffffffffffffffffff1690602001909291908035906020019092919050505061111b565b604051808215151515815260200191505060405180910390f35b6103e4600480360381019080803573ffffffffffffffffffffffffffffffffffffffff169060200190929190803560001916906020019092919080356000191690602001909291908035906020019092919080359060200190929190505050611259565b604051808215151515815260200191505060405180910390f35b61041c60048036038101908080359060200190929190505050611454565b604051808215151515815260200191505060405180910390f35b34801561044257600080fd5b50610477600480360381019080803573ffffffffffffffffffffffffffffffffffffffff1690602001909291905050506114e2565b60405180856000191660001916815260200184815260200183815260200182815260200194505050505060405180910390f35b3480156104b657600080fd5b506104ff600480360381019080803573ffffffffffffffffffffffffffffffffffffffff1690602001909291908035906020019092919080359060200190929190505050611613565b604051808215151515815260200191505060405180910390f35b34801561052557600080fd5b5061052e61167f565b6040518082815260200191505060405180910390f35b34801561055057600080fd5b5061059d600480360381019080803573ffffffffffffffffffffffffffffffffffffffff16906020019092919080359060200190929190803560001916906020019092919050505061168c565b604051808215151515815260200191505060405180910390f35b610625600480360381019080803573ffffffffffffffffffffffffffffffffffffffff169060200190929190803560001916906020019092919080359060200190929190803560001916906020019092919080359060200190929190803590602001909291905050506116fc565b604051808215151515815260200191505060405180910390f35b34801561064b57600080fd5b506106546117a2565b6040518080602001828103825283818151815260200191508051906020019060200280838360005b8381101561069757808201518184015260208101905061067c565b505050509050019250505060405180910390f35b3480156106b757600080fd5b506106d660048036038101908080359060200190929190505050611830565b6040518082815260200191505060405180910390f35b3480156106f857600080fd5b5061071760048036038101908080359060200190929190505050611853565b604051808273ffffffffffffffffffffffffffffffffffffffff1673ffffffffffffffffffffffffffffffffffffffff16815260200191505060405180910390f35b34801561076557600080fd5b506107a4600480360381019080803573ffffffffffffffffffffffffffffffffffffffff16906020019092919080359060200190929190505050611896565b60405180866000191660001916815260200185600019166000191681526020018481526020018381526020018281526020019550505050505060405180910390f35b6060600160008373ffffffffffffffffffffffffffffffffffffffff1673ffffffffffffffffffffffffffffffffffffffff16815260200190815260200160002080548060200260200160405190810160405280929190818152602001828054801561087157602002820191906000526020600020905b81548152602001906001019080831161085d575b50505050509050919050565b600061088885610e57565b1561089257600080fd5b836000808773ffffffffffffffffffffffffffffffffffffffff1673ffffffffffffffffffffffffffffffffffffffff1681526020019081526020016000206000018160001916905550826000808773ffffffffffffffffffffffffffffffffffffffff1673ffffffffffffffffffffffffffffffffffffffff16815260200190815260200160002060010181905550816000808773ffffffffffffffffffffffffffffffffffffffff1673ffffffffffffffffffffffffffffffffffffffff16815260200190815260200160002060030181905550600160028690806001815401808255809150509060018203906000526020600020016000909192909190916101000a81548173ffffffffffffffffffffffffffffffffffffffff021916908373ffffffffffffffffffffffffffffffffffffffff160217905550036000808773ffffffffffffffffffffffffffffffffffffffff1673ffffffffffffffffffffffffffffffffffffffff168152602001908152602001600020600201819055508473ffffffffffffffffffffffffffffffffffffffff167f57f7301fe8e6f5b36f73ccce215bfaee0be1dda153d32992eb9ac05da86686116000808873ffffffffffffffffffffffffffffffffffffffff1673ffffffffffffffffffffffffffffffffffffffff168152602001908152602001600020600201548686604051808481526020018360001916600019168152602001828152602001935050505060405180910390a26001600280549050039050949350505050565b60008060008060008773ffffffffffffffffffffffffffffffffffffffff1673ffffffffffffffffffffffffffffffffffffffff168152602001908152602001600020600501600086815260200190815260200160002091507f6c65667400000000000000000000000000000000000000000000000000000000826002018160001916905550838260030160008282540392505081905550600460008154809291906001019190505550600160003373ffffffffffffffffffffffffffffffffffffffff1673ffffffffffffffffffffffffffffffffffffffff16815260200190815260200160002060045490806001815401808255809150509060018203906000526020600020016000909192909190915055506000803373ffffffffffffffffffffffffffffffffffffffff1673ffffffffffffffffffffffffffffffffffffffff16815260200190815260200160002060050160006004548152602001908152602001600020905083816003018190555081600101548160010181600019169055507f627567000000000000000000000000000000000000000000000000000000000081600201816000191690555081600401548160040181905550600081600001541115610ca45760019250610e4e565b6000803373ffffffffffffffffffffffffffffffffffffffff1673ffffffffffffffffffffffffffffffffffffffff16815260200190815260200160002060040180546001019081610cf6919061191d565b81600001819055506004546000803373ffffffffffffffffffffffffffffffffffffffff1673ffffffffffffffffffffffffffffffffffffffff1681526020019081526020016000206004016001836000015403815481101515610d5657fe5b9060005260206000200181905550346000803373ffffffffffffffffffffffffffffffffffffffff1673ffffffffffffffffffffffffffffffffffffffff16815260200190815260200160002060010160008282540392505081905550346000808873ffffffffffffffffffffffffffffffffffffffff1673ffffffffffffffffffffffffffffffffffffffff168152602001908152602001600020600101600082825401925050819055508573ffffffffffffffffffffffffffffffffffffffff166108fc349081150290604051600060405180830381858888f19350505050158015610e48573d6000803e3d6000fd5b50600092505b50509392505050565b6000806002805490501415610e6f5760009050610f1b565b8173ffffffffffffffffffffffffffffffffffffffff1660026000808573ffffffffffffffffffffffffffffffffffffffff1673ffffffffffffffffffffffffffffffffffffffff16815260200190815260200160002060020154815481101515610ed657fe5b9060005260206000200160009054906101000a900473ffffffffffffffffffffffffffffffffffffffff1673ffffffffffffffffffffffffffffffffffffffff161490505b919050565b6000806000610f2e84610e57565b1515610f3957600080fd5b6000808573ffffffffffffffffffffffffffffffffffffffff1673ffffffffffffffffffffffffffffffffffffffff1681526020019081526020016000206002015491506002600160028054905003815481101515610f9457fe5b9060005260206000200160009054906101000a900473ffffffffffffffffffffffffffffffffffffffff16905080600283815481101515610fd157fe5b9060005260206000200160006101000a81548173ffffffffffffffffffffffffffffffffffffffff021916908373ffffffffffffffffffffffffffffffffffffffff160217905550816000808373ffffffffffffffffffffffffffffffffffffffff1673ffffffffffffffffffffffffffffffffffffffff1681526020019081526020016000206002018190555060028054809190600190036110749190611949565b508373ffffffffffffffffffffffffffffffffffffffff167f9a67af531bfbfd34f63109e83cfab08e30f92a1827d5c3f50e8fa815469ff9f2836040518082815260200191505060405180910390a28073ffffffffffffffffffffffffffffffffffffffff167f7b75fdcef351c63fe261922bc9d47f2f36f2ef0badfb5907990012d4cf5e0ee0836040518082815260200191505060405180910390a28192505050919050565b600061112683610e57565b151561113157600080fd5b816000808573ffffffffffffffffffffffffffffffffffffffff1673ffffffffffffffffffffffffffffffffffffffff168152602001908152602001600020600101819055508273ffffffffffffffffffffffffffffffffffffffff167fcb0522c530c1003e1a3e245f882d5c7ee1144a0b80421986671c486f23c56a276000808673ffffffffffffffffffffffffffffffffffffffff1673ffffffffffffffffffffffffffffffffffffffff168152602001908152602001600020600201546000808773ffffffffffffffffffffffffffffffffffffffff1673ffffffffffffffffffffffffffffffffffffffff16815260200190815260200160002060010154604051808381526020018281526020019250505060405180910390a26001905092915050565b60008061126587610e57565b151561127057600080fd5b6004600081548092919060010191905055506000808873ffffffffffffffffffffffffffffffffffffffff1673ffffffffffffffffffffffffffffffffffffffff168152602001908152602001600020600501600060045481526020019081526020016000209050858160010181600019169055508381600301819055508481600201816000191690555082816004018190555060008160000154111561131a576001915061144a565b600160008873ffffffffffffffffffffffffffffffffffffffff1673ffffffffffffffffffffffffffffffffffffffff16815260200190815260200160002060045490806001815401808255809150509060018203906000526020600020016000909192909190915055506000808873ffffffffffffffffffffffffffffffffffffffff1673ffffffffffffffffffffffffffffffffffffffff168152602001908152602001600020600401805460010190816113d7919061191d565b81600001819055506004546000808973ffffffffffffffffffffffffffffffffffffffff1673ffffffffffffffffffffffffffffffffffffffff168152602001908152602001600020600401600183600001540381548110151561143757fe5b9060005260206000200181905550600091505b5095945050505050565b6000806000803373ffffffffffffffffffffffffffffffffffffffff1673ffffffffffffffffffffffffffffffffffffffff168152602001908152602001600020600501600084815260200190815260200160002090507f64656c65746564000000000000000000000000000000000000000000000000008160020181600019169055506001915050919050565b6000806000806114f185610e57565b15156114fc57600080fd5b6000808673ffffffffffffffffffffffffffffffffffffffff1673ffffffffffffffffffffffffffffffffffffffff168152602001908152602001600020600001546000808773ffffffffffffffffffffffffffffffffffffffff1673ffffffffffffffffffffffffffffffffffffffff168152602001908152602001600020600101546000808873ffffffffffffffffffffffffffffffffffffffff1673ffffffffffffffffffffffffffffffffffffffff168152602001908152602001600020600201546000808973ffffffffffffffffffffffffffffffffffffffff1673ffffffffffffffffffffffffffffffffffffffff1681526020019081526020016000206003015493509350935093509193509193565b6000806000808673ffffffffffffffffffffffffffffffffffffffff1673ffffffffffffffffffffffffffffffffffffffff1681526020019081526020016000206005016000858152602001908152602001600020905082816003018190555060019150509392505050565b6000600280549050905090565b6000806000808673ffffffffffffffffffffffffffffffffffffffff1673ffffffffffffffffffffffffffffffffffffffff168152602001908152602001600020600501600085815260200190815260200160002090508281600201816000191690555060019150509392505050565b60008061170888610e57565b151561171357600080fd5b6000808973ffffffffffffffffffffffffffffffffffffffff1673ffffffffffffffffffffffffffffffffffffffff16815260200190815260200160002060050160008781526020019081526020016000209050868160010181600019169055508381600301819055508481600201816000191690555082816004018190555060019150509695505050505050565b6060600280548060200260200160405190810160405280929190818152602001828054801561182657602002820191906000526020600020905b8160009054906101000a900473ffffffffffffffffffffffffffffffffffffffff1673ffffffffffffffffffffffffffffffffffffffff16815260200190600101908083116117dc575b5050505050905090565b60038181548110151561183f57fe5b906000526020600020016000915090505481565b600060028281548110151561186457fe5b9060005260206000200160009054906101000a900473ffffffffffffffffffffffffffffffffffffffff169050919050565b6000806000806000806000808973ffffffffffffffffffffffffffffffffffffffff1673ffffffffffffffffffffffffffffffffffffffff1681526020019081526020016000206005016000888152602001908152602001600020905080600101548160020154826003015483600401548a95509550955095509550509295509295909350565b815481835581811115611944578183600052602060002091820191016119439190611975565b5b505050565b8154818355818111156119705781836000526020600020918201910161196f9190611975565b5b505050565b61199791905b8082111561199357600081600090555060010161197b565b5090565b905600a165627a7a723058207fd746c431da9c554546977b1c29241c84135a81fd8e3b75808bacd42026d0dd0029",
  "source": "pragma solidity ^0.4.6;\n// import \"./Purchase.sol\";\ncontract User {\n    ///////////////////////////////////////////////////////////\n    ////////////////////data struct////////////////////////////\n    ////////////////////////////////////////////////////////////   \n    struct Item{\n        uint keyIndex;\n        bytes32 code;\n        bytes32 state;\n        uint amount;\n        uint price;\n    }\n    \n    struct userStruct{\n            bytes32 name;\n            uint balance;\n            uint index; \n            uint role;\n            uint[] itemKeys;\n            mapping (uint => Item) items;\n    }\n    \n    \n    mapping(address => userStruct) userStructs;\n    mapping(address => uint[]) userWithItem;\n    address[] private userIndex;\n    uint[] public itmeIndex;\n    uint counter;\n    \n    ///////////////////////////////////////////////////////////\n    ////////////////////event functions/////////////////////////\n    ////////////////////////////////////////////////////////////\n    event LogNewUser   (address indexed userAddress, uint index, bytes32 name, uint balance);\n    event LogUpdateUser(address indexed userAddress, uint index, uint);\n    event LogUpdateUser(address indexed userAddress, uint index);\n    event LogDeleteUser(address indexed userAddress, uint index);\n  \n\n\n    ///////////////////////////////////////////////////////////\n    ////////////////////user functions/////////////////////////\n    ////////////////////////////////////////////////////////////\n    function insertUser(address userAddress,bytes32 name,uint balance,uint _role) public returns(uint index){\n        if(isUser(userAddress)) throw; \n        userStructs[userAddress].name = name;\n        userStructs[userAddress].balance   = balance;\n        userStructs[userAddress].role   = _role;\n        userStructs[userAddress].index     = userIndex.push(userAddress)-1;\n        LogNewUser( \n            userAddress, \n            userStructs[userAddress].index, \n            name, \n            balance);\n        return userIndex.length-1;\n    }\n\n  \n    function isUser(address userAddress)public constant returns(bool isIndeed) {\n        if(userIndex.length == 0) return false;\n        return (userIndex[userStructs[userAddress].index] == userAddress);\n    }\n\n    function getUser(address userAddress) public constant returns(bytes32 name, uint balance, uint index,uint){\n        if(!isUser(userAddress)) throw; \n        return (userStructs[userAddress].name, userStructs[userAddress].balance, userStructs[userAddress].index,userStructs[userAddress].role);\n    }\n      \n    function updateUserBalance(address userAddress, uint _balance) public returns(bool success) {\n        if(!isUser(userAddress)) throw; \n        userStructs[userAddress].balance = _balance;\n        LogUpdateUser(\n          userAddress, \n          userStructs[userAddress].index,\n          userStructs[userAddress].balance);\n        return true;\n    }\n  \n    function getUserCount() public constant returns(uint count){\n        return userIndex.length;\n    }\n    \n    function getUserAtIndex(uint index) public constant returns(address userAddress){\n        return userIndex[index];\n    }\n    \n    function getAllUsers() public constant returns(address[]){\n        return userIndex;\n    }\n\n\n    function deleteUser(address userAddress) \n        public\n        returns(uint index)\n    {\n        if(!isUser(userAddress)) throw; \n        uint rowToDelete = userStructs[userAddress].index;\n        address keyToMove = userIndex[userIndex.length-1];\n        userIndex[rowToDelete] = keyToMove;\n        userStructs[keyToMove].index = rowToDelete; \n        userIndex.length--;\n        LogDeleteUser(\n            userAddress, \n            rowToDelete);\n        LogUpdateUser(\n            keyToMove, \n            rowToDelete);\n        return rowToDelete;\n    }\n\n    ///////////////////////////////////////////////////////////\n    ////////////////////item functions/////////////////////////\n    ////////////////////////////////////////////////////////////\n  \n    function insertItem(address userAddress, bytes32 _code,bytes32 _state,uint _amount,uint _price)public payable returns (bool){\n        if(!isUser(userAddress)) throw;\n        counter++;\n        Item storage t = userStructs[userAddress].items[counter];\n        t.code = _code;\n        t.amount = _amount;\n        t.state = _state;\n        t.price = _price;\n        if(t.keyIndex > 0){\n            return true;\n        }else{\n            userWithItem[userAddress].push(counter);\n            t.keyIndex = ++userStructs[userAddress].itemKeys.length;\n            userStructs[userAddress].itemKeys[t.keyIndex - 1] = counter;\n            return false;\n        }\n    }\n\n\n    function updateItem(address userAddress, bytes32 _code,uint _itmeID,bytes32 _state,uint _amount,uint _price)public payable returns (bool){\n        if(!isUser(userAddress)) throw;\n        Item storage t = userStructs[userAddress].items[_itmeID];\n        t.code = _code;\n        t.amount = _amount;\n        t.state = _state;\n        t.price = _price;\n        return true;\n    }\n    function deleteItem(uint _itmeID) public  payable returns (bool) {\n        Item storage t = userStructs[msg.sender].items[_itmeID];\n        t.state = \"deleted\";\n        // uint listLen = userWithItem[msg.sender].length;\n        // uint index;\n        // for (uint i = 0; i < listLen; i++) {\n        //     if (userWithItem[msg.sender][i] == _itmeID) {\n        //         index = i;\n        //     }\n        // }\n        // userWithItem[msg.sender][index] = userWithItem[msg.sender][listLen-1];\n        // userWithItem[msg.sender].length--;\n\n\n\n        // uint rowTodelete = userStructs[msg.sender].items[_itmeID].keyIndex;\n        // uint keyToMove = userWithItem[msg.sender][userWithItem[msg.sender].length-1];\n        // userWithItem[msg.sender][rowTodelete] = keyToMove;\n        // userStructs[msg.sender].items[keyToMove].keyIndex = rowTodelete;\n        // userWithItem[msg.sender].length--;\n        return true;\n    }\n\n\n    \n    function getUserItemId(address _address) constant public returns(uint[]){\n      //need to check if there is a address in data and a item in the address\n      return userWithItem[_address];\n    }\n  \n    function getItemById(address _address,uint _itmeID) constant public returns(bytes32,bytes32,uint,uint,uint ) {\n      //need to check if there is a address in data and a item in the address\n      Item storage t =  userStructs[_address].items[_itmeID];\n      return (t.code,t.state,t.amount,t.price,_itmeID);\n    }\n    \n    function updateItemState(address _address,uint _itmeID,bytes32 _state)returns (bool){\n        //need to check if there is a address in data and a item in the address\n        Item storage t =  userStructs[_address].items[_itmeID];\n        t.state = _state;\n        return true;\n    }\n    \n    function updateItemAmount(address _address,uint _itmeID,uint _amount)returns (bool) {\n        //need to check if there is a address in data and a item in the address\n        Item storage t =  userStructs[_address].items[_itmeID];\n        t.amount = _amount;\n        return true;\n    }\n\n    function transferEther(address _seller, uint _itemId,uint _amount) public payable returns(bool) {\n        Item storage t1 = userStructs[_seller].items[_itemId]; \n        t1.state =\"left\";\n        t1.amount -= _amount;\n        counter++;\n        userWithItem[msg.sender].push(counter);\n        Item storage t2 = userStructs[msg.sender].items[counter]; \n        t2.amount = _amount;\n        t2.code = t1.code;\n        t2.state = \"bug\";\n        t2.price = t1.price;\n        if (t2.keyIndex > 0) {\n            return true;\n        }else {\n            t2.keyIndex = ++userStructs[msg.sender].itemKeys.length;\n            userStructs[msg.sender].itemKeys[t2.keyIndex - 1] = counter;\n            userStructs[msg.sender].balance -= msg.value;\n            userStructs[_seller].balance += msg.value;       \n            _seller.transfer(msg.value);\n            return false;\n        }\n    } \n    //   function createPurchase()  constant public returns (address){\n    //   Purchase p = new Purchase();\n    //   return p;\n    //     }\n  \n//   function getItemByAddress(address _address) public constant returns(bytes32[],bytes32[],uint[],uint[]){\n//       bytes32[]  codes;\n//       bytes32[]  states;\n//       uint[]  amounts;\n//       uint[]  prices;\n//       for(uint i = 0;i< userStructs[_address].itemKeys.length;i++){\n//             Item storage t = userStructs[_address].items[userStructs[_address].itemKeys[i]];\n//             codes.push(t.code);\n//             states.push(t.state);\n//             amounts.push(t.amount);\n//             prices.push(t.price);\n//       }\n//       return (codes,states,amounts,prices);\n//   }\n}",
  "sourcePath": "/Users/dk/Downloads/comp9900/front-end/blockchain/contracts/user.sol",
  "compiler": {
    "name": "solc",
    "version": "0.4.23+commit.124ca40d.Emscripten.clang"
  },
  "schemaVersion": "2.0.0",
  "updatedAt": "2018-05-20T14:20:35.175Z"
}